{
  "contractName": "Drugpurchase",
  "abi": [
    {
      "constant": true,
      "inputs": [
        {
          "name": "",
          "type": "uint256"
        }
      ],
      "name": "manufacturer",
      "outputs": [
        {
          "name": "",
          "type": "address"
        }
      ],
      "payable": false,
      "stateMutability": "view",
      "type": "function"
    },
    {
      "constant": false,
      "inputs": [
        {
          "name": "Id",
          "type": "uint256"
        }
      ],
      "name": "buydrug",
      "outputs": [
        {
          "name": "",
          "type": "uint256"
        }
      ],
      "payable": false,
      "stateMutability": "nonpayable",
      "type": "function"
    },
    {
      "constant": true,
      "inputs": [],
      "name": "getdrugbuyers",
      "outputs": [
        {
          "name": "",
          "type": "address[16]"
        }
      ],
      "payable": false,
      "stateMutability": "view",
      "type": "function"
    }
  ],
  "bytecode": "0x608060405234801561001057600080fd5b506102f4806100206000396000f3fe608060405260043610610057576000357c0100000000000000000000000000000000000000000000000000000000900463ffffffff168063113e013e1461005c578063a43271b9146100af578063ff8f8aa91461012a575b600080fd5b34801561006857600080fd5b50610071610179565b6040518082601060200280838360005b8381101561009c578082015181840152602081019050610081565b5050505090500191505060405180910390f35b3480156100bb57600080fd5b506100e8600480360360208110156100d257600080fd5b81019080803590602001909291905050506101fa565b604051808273ffffffffffffffffffffffffffffffffffffffff1673ffffffffffffffffffffffffffffffffffffffff16815260200191505060405180910390f35b34801561013657600080fd5b506101636004803603602081101561014d57600080fd5b810190808035906020019092919050505061022f565b6040518082815260200191505060405180910390f35b6101816102a4565b60006010806020026040519081016040528092919082601080156101f0576020028201915b8160009054906101000a900473ffffffffffffffffffffffffffffffffffffffff1673ffffffffffffffffffffffffffffffffffffffff16815260200190600101908083116101a6575b5050505050905090565b60008160108110151561020957fe5b016000915054906101000a900473ffffffffffffffffffffffffffffffffffffffff1681565b60008082101580156102425750600f8211155b151561024d57600080fd5b3360008360108110151561025d57fe5b0160006101000a81548173ffffffffffffffffffffffffffffffffffffffff021916908373ffffffffffffffffffffffffffffffffffffffff160217905550819050919050565b6102006040519081016040528060109060208202803883398082019150509050509056fea165627a7a72305820b09dd909f39d21821f563fd33a99872e1ea44902e4fa748a52c4c59cd109a6d70029",
  "source": "pragma solidity ^0.5.0;\r\n\r\ncontract Drugpurchase {\r\naddress[16] public manufacturer;\r\n\r\nfunction buydrug(uint Id) public returns (uint) {\r\n  require(Id >= 0 && Id <= 15);\r\n\r\n  manufacturer[Id] = msg.sender;\r\n\r\n  return Id;\r\n}\r\nfunction getdrugbuyers() public view returns (address[16] memory) {\r\n  return manufacturer;\r\n}\r\n}",
  "sourcePath": "C:/Users/hp/Desktop/fyp/contracts/productbuy.sol",
  "compiler": {
    "name": "solc",
    "version": "0.5.0+commit.1d4f565a.Emscripten.clang"
  },
  "schemaVersion": "3.0.1",
  "updatedAt": "2021-11-28T12:01:31.903Z",
  "devdoc": {
    "methods": {}
  },
  "userdoc": {
    "methods": {}
  }
}